:020000040800F2
:1000000090060020290200088F0B00088B0B0008C7
:100010008D0B0008E3020008690D000800000000D5
:10002000000000000000000000000000610C00085B
:10003000D50A000800000000150C0008630C000839
:10004000430200084302000843020008430200087C
:10005000430200084302000843020008430200086C
:10006000430200084302000843020008430200085C
:10007000430200084302000843020008430200084C
:10008000430200084302000843020008430200083C
:10009000E50200084302000843020008430200088A
:1000A000430200084302000843020008430200081C
:1000B000430200084302000843020008430200080C
:1000C00043020008430200084302000843020008FC
:1000D00043020008430200084302000843020008EC
:1000E00043020008430200084302000843020008DC
:1000F00043020008430200084302000843020008CC
:1001000043020008430200084302000843020008BB
:1001100043020008430200084302000843020008AB
:10012000430200084302000843020008430200089B
:10013000430200084302000843020008430200088B
:10014000430200084302000843020008430200087B
:10015000430200084302000843020008430200086B
:10016000430200084302000843020008430200085B
:10017000430200084302000843020008430200084B
:10018000430200084302000800F002F800F03CF8C7
:100190000AA090E8000C82448344AAF10107DA45E2
:1001A00001D100F031F8AFF2090EBAE80F0013F0F8
:1001B000010F18BFFB1A43F001031847480C000059
:1001C000680C0000103A24BF78C878C1FAD85207EA
:1001D00024BF30C830C144BF04680C6070470000C1
:1001E0000023002400250026103A28BF78C1FBD840
:1001F000520728BF30C148BF0B6070471FB500F0E1
:10020000FBFD1FBD10B510BD00F031F81146FFF722
:10021000F5FF00F0ABFD00F04FF803B4FFF7F2FF7D
:1002200003BC00F057F80000094880470948004720
:10023000FEE7FEE7FEE7FEE7FEE7FEE7FEE7FEE796
:10024000FEE7FEE704480549054A064B70470000F3
:10025000650C00088901000890000020900600202D
:10026000900200209002002070477047704775464A
:1002700000F02CF8AE4605006946534620F0070012
:10028000854618B020B5FFF7DDFFBDE820404FF0F0
:1002900000064FF000074FF000084FF0000B21F070
:1002A0000701AC46ACE8C009ACE8C009ACE8C0093D
:1002B000ACE8C0098D46704710B50446AFF3008026
:1002C0002046BDE81040FFF7A8BF00000048704777
:1002D0002C00002001491820ABBEFEE726000200DA
:1002E0007047FEE710B5094C0221204600F0E2F904
:1002F000002808BF10BD0649204600F03BFB204601
:10030000BDE81040022100F005B800000064004084
:100310001800002010B4082304224FF0100CB1F58F
:10032000007F40D021DC202902BF036110BC704750
:1003300010DC012901BF1D49816010BC70470429F0
:1003400002BFC36010BC7047082908BFC0F80CC0CA
:1003500010BC7047402902BFC0F810C010BC7047E5
:10036000B1F5807F1FD010BC70470024B1F5004F5D
:1003700008D00BDCB1F5806F15D0B1F5006F1CBF54
:1003800010BC70478461426010BC7047B1F5803F7B
:1003900002BF436010BC7047B1F5003F08BFC0F812
:1003A00004C010BC7047426010BC704701010100DE
:1003B0002DE9FF4F704C0646DFF8B491DFF8B4A189
:1003C0006078012700258BB04FF4805B4FF0030865
:1003D0004E4539D110F0010F06D140F00100607098
:1003E0000121480600F024FC207810F0010F6BD1A9
:1003F00040F0010020700121084600F00DFC0121B1
:10040000084600F009FC5D4C09220C21204600F052
:10041000ABFB09220B21204600F0A6FB02208DF841
:1004200014008DF815808DF81650CDF810B08DF8A9
:10043000177004A9204600F04FFBE014049004A9B3
:10044000204600F049FB3FE056453DD110F0020F39
:100450000AD140F0020060700121480600F0E8FB7C
:100460000121880600F0E4FB207810F0020F2BD168
:1004700040F0020020700121022000F0CDFB01219C
:10048000022000F0C9FB3E4C09220D21204600F05D
:100490006BFB09220C21204600F066FB4FF4005054
:1004A000049002208DF814008DF815808DF81650F8
:1004B0008DF8177004A9204600F00EFB04A9204611
:1004C000CDF810B000F008FB0C98ADF818001898A3
:1004D0008DF81A000F208DF81C008DF81D808DF806
:1004E0001E508DF81B508DF81F503046089500F0B7
:1004F0004BF806A9304600F06DF9DDE90D1040EA31
:100500008140410BADF80010C9434FF6FF7202EA7B
:10051000C002ADF804104FF6F87121EAC000ADF842
:100520000220ADF806004E4504BFADF808508DF826
:100530000A5006D0564504D1ADF808500E208DF86B
:100540000A008DF80C708DF80B508DF80D70684610
:1005500000F038F800220B49304600F033F9012250
:100560003046199900F02EF90FB0BDE8F08F000069
:1005700000640040006800400000002000000240CD
:10058000000402407F8F0300A0F1804110B5B1F557
:10059000C8414FF0010109D0880600F055FBBDE8C5
:1005A000104000214FF0806000F04EBB4FF0007013
:1005B00000F04AFBBDE8104000214FF0007000F051
:1005C00043BB000030B4817A354B012202FA01F1BD
:1005D0001A6842F001021A60DFF8C8C0DCF8002097
:1005E0008A43CCF80020047B2F4AD4B914688C438A
:1005F00014604488C58844EA0544857AED0005F115
:10060000804505F5C045C5F840460488858844EA1C
:100610000544857AED0005F1804505F5C045C5F82E
:100620004446047B012C18D114680C431460847A6E
:100630000268E40004F1804404F5C0444FEA324209
:10064000C4F84026847A4268E40004F1804404F54A
:10065000C0444FEA3242C4F84426C47A134A002CFC
:1006600014680CBF8C430C4314600489104A14B9FD
:1006700014688C4314600489012C02D114680C4363
:100680001460407B012804D1DCF800000843CCF85A
:100690000000186820F00100186030BC70470000AE
:1006A000006600401C6600400C6600400466004086
:1006B000146600400246002053690B4208BF704791
:1006C000B1F5807F64D01CDC082949D00CDC0129FD
:1006D00038D002293ED0042918BF7047D1680020C5
:1006E00011F0080F34D1704710293FD0202943D092
:1006F000402918BF70471169002011F0100F27D151
:100700007047B1F5004F55D00FDCB1F5007F45D0F3
:10071000B1F5806F48D0B1F5006F18BF704791698F
:10072000002011F0700F13D17047B1F5803F29D030
:10073000B1F5003F18BF70475168002011F0100F4D
:1007400006D1704791681E4A0020114208BF7047C9
:1007500001207047D168002011F0030FF8D17047D5
:10076000D168002011F0100FF2D1704711690020FC
:1007700011F0030FECD170471169002011F0080F40
:10078000E6D170475168002011F0080FE0D17047A2
:100790009169002011F0010FDAD1704791690020B2
:1007A00011F0020FD4D170479169002011F0040FAD
:1007B000CED170475168002011F0040FC8D17047A6
:1007C00001010100002A426914BF114322EA01011C
:1007D000416170470268002322F002020260026851
:1007E00042F0010202604FF6FF7200BFD0F804C071
:1007F0001CF0010F03D1934218BF5B1CF6D1436874
:1008000013F0010F59D08B79012B03680CBF43F013
:10081000800323F080030360CB79012B03680CBFB6
:1008200043F0400323F0400303600B7A012B03687D
:100830000CBF43F0200323F0200303604B7A012B0D
:1008400003680CBF43F0100323F0100303608B7A9E
:10085000012B03680CBF43F0080323F00803036077
:10086000CB7A012B03680CBF43F0040323F004038D
:1008700003608B7891F803C09B0743EA0C6391F8FF
:1008800004C043EA0C4391F805C0098843EA0C53BD
:10089000491E1943C161016821F001010160002175
:1008A000436813F0010F1CBF9142491CF8D1406806
:1008B00010F0010F04BF012070470020704700EBCB
:1008C0000113D3F8B0C11CF0040C82F808C0D3F8AF
:1008D000B0C107BF4FEA5C5CC2F800C04FEADC0C55
:1008E000C2F804C0D3F8B0C10CF0020C82F809C001
:1008F000D3F8B4C10CF00F0C82F80AC0D3F8B4C11D
:100900004FEA1C2C82F813C0D3F8B8C182F80BC090
:10091000D3F8B8C14FEA1C2C82F80CC0D3F8B8C188
:100920004FEA1C4C82F80DC0D3F8B8C14FEA1C6CDA
:1009300082F80EC0D3F8BCC182F80FC0D3F8BCC196
:100940004FEA1C2C82F810C0D3F8BCC14FEA1C4CF3
:1009500082F811C0D3F8BC311B0E937421B1016928
:1009600041F0200101617047C16841F02001C16080
:1009700070470000034610B50D48DFF830C0002472
:100980004078634503D110F0010F07D10CE0DFF888
:1009900024C0634508D110F0020F05D00A46012497
:1009A00000216046FFF78BFF204610BD0064004029
:1009B000000000200068004010B402460020936848
:1009C00013F0806F3FD000BF02EB0012D2F88031ED
:1009D00003F00103C2F880310B7A002B42D0D2F829
:1009E00080C14C684CEA030391F809C04CEAC40C7E
:1009F00043EA0C03C2F880318B7A03F00F038B7249
:100A0000D2F8843123F00F03C2F88431D2F8843154
:100A100091F80AC043EA0C03C2F88431CB7AD1F8CA
:100A20000CC043EA0C23C2F88831CB7B096943EA46
:100A30000121C2F88C11D2F8801141F00101C2F8F5
:100A4000801110BC7047906810F0006F18BF012033
:100A5000BAD1906810F0805F14BF02200420B3D197
:100A600010BC7047D2F8803191F809C043EA0C03FA
:100A7000B1F800C043EA4C53BCE7000070B5024631
:100A80001248114D002440780E46AA420BD110F0B6
:100A9000010F18BF012414D031462846FFF78CFF00
:100AA0000428F9D00DE00A4DAA420AD110F0020F35
:100AB00018BF012405D031462846FFF77DFF0428E2
:100AC000F9D0204670BD0000006400400000002006
:100AD00000680040704700002DE9F0010022012568
:100AE0005FF00306D1F800C005FA02F30CEA030C2C
:100AF0009C4533D107684FEA420C06FA0CF4A74331
:100B000007600F79D0F8008007FA0CF747EA08076A
:100B100007600F79012F18BF022F14D18768A743F0
:100B200087604F79D0F8088007FA0CF747EA080782
:100B30008760476827EA0303436043688F799740DB
:100B4000BFB23B434360C368A343C360CB7903FA9E
:100B50000CF3D0F80CC043EA0C03C360521C102AFB
:100B6000C0D3BDE8F00170474B07DB0E9A40C908BF
:100B700000EB8100016A4FF00F0C0CFA03F399436C
:100B80000162016A114301627047FEE7FEE77047A8
:100B900010B4C27801780F244FF0010C0AB3174A41
:100BA000126801F1E02102F4E062C2F5E062C2F3F2
:100BB0000722C2F10403D44042789A40837823404C
:100BC0001A43120181F80024007800F01F010CFA8A
:100BD00001F14009800000F1E020C0F8001110BCD4
:100BE000704701F01F000CFA00F04909890001F17B
:100BF000E021C1F8800110BC704700000CED00E05E
:100C0000034940F0FD7040F08060086070470000CC
:100C10000CED00E070470000044A0029116814BF81
:100C2000084321EA0000106070470000303802409D
:100C3000044A0029116814BF084321EA000010602B
:100C40007047000040380240044A0029116814BF70
:100C5000084321EA0000106070470000203802407D
:100C600070477047374882B0016841F470010160F5
:100C70003548016841F001010160344900230B60EF
:100C8000026822F4102222F08072026000F1040C4B
:100C90002F4ACCF80020026822F4802202600A1D4C
:100CA000136001930093026842F48032026002688C
:100CB00002F400320092019A521C0192009A1AB971
:100CC000019AB2F5A04FF2D1026812F4003F08BFBA
:100CD000009331D0012200921E4A136843F08053E2
:100CE00013601D4A136843F4404313600A680A60A6
:100CF0000A6842F400420A600A6842F4A0520A609C
:100D0000164ACCF80020026842F080720260026845
:100D100012F0007FFBD0124A40F2057010600868A4
:100D200020F003000860086840F0020008600868CE
:100D300000F00C000828FAD10A494FF00060086062
:100D400002B0704788ED00E00038024008380240E9
:100D50001030002440380240007000400854400722
:100D6000003C024008ED00E0FEE7000082B00226F1
:100D70000127CDE9007603231A4631461C48FFF7C8
:100D800017FB4FF4E060FFF73BFF14208DF80000E5
:100D900000258DF801508DF802508DF803706846DB
:100DA000FFF7F6FE134C4FF003084FF004094FF025
:100DB000080A4FF0050B00BFC4E9006884F80890EA
:100DC000657284F80AA0E07A0A49401CE072277331
:100DD000667384F80E8084F80F9084F810B084F85D
:100DE00011A00920A0740248FFF748FEE4E70000C4
:100DF00000640040040000204FF04070E1EE100A53
:100E000070470000240E00080000002004000000CD
:100E1000C4010008280E0008040000208C06000011
:080E2000E001000800000000E1
:040000050800018965
:00000001FF
